:020000040000FA
:060000000A128A110C280F
:10000800FE00030EF0000A08F1000A128A11AF2858
:100018000A128A110F2883010A128A11CD28F400C6
:100028004B28831603130F138F120F126D28831694
:1000380003130F138F120F166D28831603130F1354
:100048008F160F126D28831603130F138F160F16B2
:100058006D28831603130F178F120F126D2883163E
:1000680003130F178F120F166D28831603130F171C
:100078008F160F126D28831603130F178F160F167E
:100088006D28831603130F178F160F126D28740827
:10009800F200F3017308003A03195328452872083F
:1000A800003A03191528013A03191B28033A0319C2
:1000B8002128013A03192728073A03192D28013A5C
:1000C80003193328033A03193928013A03193F2839
:1000D80045280F14080007300A128A1113200A1243
:1000E8008A11831603138F110F118F108B170B179B
:1000F8008B158B160B160C170B110B108312031391
:100108000C13831603131614961416158316031767
:1001180088010130890083160313850183120313B4
:1001280085010730831603138600831203138601A3
:10013800831603138701831203138701831603139E
:10014800880183120313880183160313890183121C
:100158000313890108000B1CB228B328C628831290
:1001680003130618B828B928BE280708FF3E8700D9
:100178000B10C6288618C128C228C6280708013EC1
:1001880087000B1071088A00700E8300FE0E7E0E29
:1001980009000A128A116F200A128A11D2280A123B
:0401A8008A110C2884
:04400E00F420FF3F5C
:00000001FF
